{
    "_format": "hh-sol-artifact-1",
    "contractName": "TokenSale",
    "sourceName": "contracts/TokenSale.sol",
    "abi": [
        {
            "inputs": [
                {
                    "internalType": "uint256",
                    "name": "_ratio",
                    "type": "uint256"
                },
                {
                    "internalType": "contract MyERC20Token",
                    "name": "_paymentToken",
                    "type": "address"
                }
            ],
            "stateMutability": "nonpayable",
            "type": "constructor"
        },
        {
            "anonymous": false,
            "inputs": [
                {
                    "indexed": true,
                    "internalType": "address",
                    "name": "previousOwner",
                    "type": "address"
                },
                {
                    "indexed": true,
                    "internalType": "address",
                    "name": "newOwner",
                    "type": "address"
                }
            ],
            "name": "OwnershipTransferred",
            "type": "event"
        },
        {
            "inputs": [],
            "name": "buyTokens",
            "outputs": [],
            "stateMutability": "payable",
            "type": "function"
        },
        {
            "inputs": [],
            "name": "owner",
            "outputs": [
                {
                    "internalType": "address",
                    "name": "",
                    "type": "address"
                }
            ],
            "stateMutability": "view",
            "type": "function"
        },
        {
            "inputs": [],
            "name": "paymentToken",
            "outputs": [
                {
                    "internalType": "contract MyERC20Token",
                    "name": "",
                    "type": "address"
                }
            ],
            "stateMutability": "view",
            "type": "function"
        },
        {
            "inputs": [],
            "name": "price",
            "outputs": [
                {
                    "internalType": "uint256",
                    "name": "",
                    "type": "uint256"
                }
            ],
            "stateMutability": "view",
            "type": "function"
        },
        {
            "inputs": [],
            "name": "ratio",
            "outputs": [
                {
                    "internalType": "uint256",
                    "name": "",
                    "type": "uint256"
                }
            ],
            "stateMutability": "view",
            "type": "function"
        },
        {
            "inputs": [],
            "name": "renounceOwnership",
            "outputs": [],
            "stateMutability": "nonpayable",
            "type": "function"
        },
        {
            "inputs": [
                {
                    "internalType": "uint256",
                    "name": "amount",
                    "type": "uint256"
                }
            ],
            "name": "returnTokens",
            "outputs": [],
            "stateMutability": "nonpayable",
            "type": "function"
        },
        {
            "inputs": [
                {
                    "internalType": "address",
                    "name": "newOwner",
                    "type": "address"
                }
            ],
            "name": "transferOwnership",
            "outputs": [],
            "stateMutability": "nonpayable",
            "type": "function"
        }
    ],
    "bytecode": "0x60806040523480156200001157600080fd5b5060405162000be838038062000be883398181016040528101906200003791906200022c565b620000576200004b620000a760201b60201c565b620000af60201b60201c565b8160028190555080600360006101000a81548173ffffffffffffffffffffffffffffffffffffffff021916908373ffffffffffffffffffffffffffffffffffffffff160217905550505062000273565b600033905090565b60008060009054906101000a900473ffffffffffffffffffffffffffffffffffffffff169050816000806101000a81548173ffffffffffffffffffffffffffffffffffffffff021916908373ffffffffffffffffffffffffffffffffffffffff1602179055508173ffffffffffffffffffffffffffffffffffffffff168173ffffffffffffffffffffffffffffffffffffffff167f8be0079c531659141344cd1fd0a4f28419497f9722a3daafe3b4186f6b6457e060405160405180910390a35050565b600080fd5b6000819050919050565b6200018d8162000178565b81146200019957600080fd5b50565b600081519050620001ad8162000182565b92915050565b600073ffffffffffffffffffffffffffffffffffffffff82169050919050565b6000620001e082620001b3565b9050919050565b6000620001f482620001d3565b9050919050565b6200020681620001e7565b81146200021257600080fd5b50565b6000815190506200022681620001fb565b92915050565b6000806040838503121562000246576200024562000173565b5b600062000256858286016200019c565b9250506020620002698582860162000215565b9150509250929050565b61096580620002836000396000f3fe60806040526004361061007b5760003560e01c80638da5cb5b1161004e5780638da5cb5b14610116578063a035b1fe14610141578063d0febe4c1461016c578063f2fde38b146101765761007b565b80633013ce29146100805780633ae1786f146100ab578063715018a6146100d457806371ca337d146100eb575b600080fd5b34801561008c57600080fd5b5061009561019f565b6040516100a291906105e4565b60405180910390f35b3480156100b757600080fd5b506100d260048036038101906100cd919061063a565b6101c5565b005b3480156100e057600080fd5b506100e96102ab565b005b3480156100f757600080fd5b506101006102bf565b60405161010d9190610676565b60405180910390f35b34801561012257600080fd5b5061012b6102c5565b60405161013891906106b2565b60405180910390f35b34801561014d57600080fd5b506101566102ee565b6040516101639190610676565b60405180910390f35b6101746102f4565b005b34801561018257600080fd5b5061019d600480360381019061019891906106f9565b610398565b005b600360009054906101000a900473ffffffffffffffffffffffffffffffffffffffff1681565b600360009054906101000a900473ffffffffffffffffffffffffffffffffffffffff1673ffffffffffffffffffffffffffffffffffffffff166379cc679033836040518363ffffffff1660e01b8152600401610222929190610726565b600060405180830381600087803b15801561023c57600080fd5b505af1158015610250573d6000803e3d6000fd5b505050503373ffffffffffffffffffffffffffffffffffffffff166108fc6002548361027c91906107ad565b9081150290604051600060405180830381858888f193505050501580156102a7573d6000803e3d6000fd5b5050565b6102b361041b565b6102bd6000610499565b565b60025481565b60008060009054906101000a900473ffffffffffffffffffffffffffffffffffffffff16905090565b60015481565b60006002543461030491906107de565b9050600360009054906101000a900473ffffffffffffffffffffffffffffffffffffffff1673ffffffffffffffffffffffffffffffffffffffff166340c10f1933836040518363ffffffff1660e01b8152600401610363929190610726565b600060405180830381600087803b15801561037d57600080fd5b505af1158015610391573d6000803e3d6000fd5b5050505050565b6103a061041b565b600073ffffffffffffffffffffffffffffffffffffffff168173ffffffffffffffffffffffffffffffffffffffff160361040f576040517f08c379a0000000000000000000000000000000000000000000000000000000008152600401610406906108a3565b60405180910390fd5b61041881610499565b50565b61042361055d565b73ffffffffffffffffffffffffffffffffffffffff166104416102c5565b73ffffffffffffffffffffffffffffffffffffffff1614610497576040517f08c379a000000000000000000000000000000000000000000000000000000000815260040161048e9061090f565b60405180910390fd5b565b60008060009054906101000a900473ffffffffffffffffffffffffffffffffffffffff169050816000806101000a81548173ffffffffffffffffffffffffffffffffffffffff021916908373ffffffffffffffffffffffffffffffffffffffff1602179055508173ffffffffffffffffffffffffffffffffffffffff168173ffffffffffffffffffffffffffffffffffffffff167f8be0079c531659141344cd1fd0a4f28419497f9722a3daafe3b4186f6b6457e060405160405180910390a35050565b600033905090565b600073ffffffffffffffffffffffffffffffffffffffff82169050919050565b6000819050919050565b60006105aa6105a56105a084610565565b610585565b610565565b9050919050565b60006105bc8261058f565b9050919050565b60006105ce826105b1565b9050919050565b6105de816105c3565b82525050565b60006020820190506105f960008301846105d5565b92915050565b600080fd5b6000819050919050565b61061781610604565b811461062257600080fd5b50565b6000813590506106348161060e565b92915050565b6000602082840312156106505761064f6105ff565b5b600061065e84828501610625565b91505092915050565b61067081610604565b82525050565b600060208201905061068b6000830184610667565b92915050565b600061069c82610565565b9050919050565b6106ac81610691565b82525050565b60006020820190506106c760008301846106a3565b92915050565b6106d681610691565b81146106e157600080fd5b50565b6000813590506106f3816106cd565b92915050565b60006020828403121561070f5761070e6105ff565b5b600061071d848285016106e4565b91505092915050565b600060408201905061073b60008301856106a3565b6107486020830184610667565b9392505050565b7f4e487b7100000000000000000000000000000000000000000000000000000000600052601260045260246000fd5b7f4e487b7100000000000000000000000000000000000000000000000000000000600052601160045260246000fd5b60006107b882610604565b91506107c383610604565b9250826107d3576107d261074f565b5b828204905092915050565b60006107e982610604565b91506107f483610604565b925082820261080281610604565b915082820484148315176108195761081861077e565b5b5092915050565b600082825260208201905092915050565b7f4f776e61626c653a206e6577206f776e657220697320746865207a65726f206160008201527f6464726573730000000000000000000000000000000000000000000000000000602082015250565b600061088d602683610820565b915061089882610831565b604082019050919050565b600060208201905081810360008301526108bc81610880565b9050919050565b7f4f776e61626c653a2063616c6c6572206973206e6f7420746865206f776e6572600082015250565b60006108f9602083610820565b9150610904826108c3565b602082019050919050565b60006020820190508181036000830152610928816108ec565b905091905056fea26469706673582212201a3419509087df4ed677f0c60033dc062f94998dd66f53be0590b9748cfe209964736f6c63430008120033",
    "linkReferences": {},
    "deployedLinkReferences": {}
}